:100000000C9462000C94CC030C94A5030C948A000D
:100010000C948A000C948A000C948A000C948A0038
:100020000C948A000C948A000C948A000C948A0028
:100030000C948A000C948A000C948A000C948A0018
:100040000C945B030C948A000C9419040C94F30335
:100050000C948A000C948A000C948A000C948A00F8
:100060000C948A000C948A000000000023002600F3
:10007000290000000008000201000003040700003E
:1000800000000000000000000000250028002B00F8
:1000900000000000240027002A00040404040404D3
:1000A0000404020202020202030303030303010227
:1000B00004081020408001020408102001020408F6
:1000C00010204B0411241FBECFEFD8E0DEBFCDBF00
:1000D00011E0A0E0B1E0ECE4F5E102C005900D9282
:1000E000AE31B107D9F722E0AEE1B1E001C01D9217
:1000F000A03AB207E1F710E0C2E6D0E004C02197D1
:10010000FE010E949508C136D107C9F70E948404F8
:100110000C94A40A0C9400003FB7F8948091DE017F
:100120009091DF01A091E001B091E10126B5A89B7B
:1001300005C02F3F19F00196A11DB11D3FBFBA2F79
:10014000A92F982F8827BC01CD01620F711D811D39
:10015000911D42E0660F771F881F991F4A95D1F7BE
:10016000089590E0FC01E255FF4F249186569F4F81
:10017000FC018491882399F090E0880F991FFC017D
:10018000E057FF4FA591B491FC01EA57FF4F8591CD
:1001900094918FB7F894EC91E22BEC938FBF089574
:1001A0008F929F92AF92BF92CF92DF92EF92FF9287
:1001B0000E948C004B015C018CE0C82ED12CE12CFC
:1001C000F12C0E948C00681979098A099B09683E04
:1001D000734081059105A8F321E0C21AD108E10816
:1001E000F10888EE880E83E0981EA11CB11CC11492
:1001F000D104E104F10429F7FF90EF90DF90CF9054
:10020000BF90AF909F908F900895833081F028F435
:10021000813099F08230A9F008958730A9F08830B4
:10022000C9F08430B1F4809180008F7D03C080914B
:1002300080008F7780938000089584B58F7784BD88
:10024000089584B58F7DFBCF8091B0008F77809328
:10025000B00008958091B0008F7DF9CF1F93CF93A8
:10026000DF93282F30E0F901EE58FF4F8491F90118
:10027000E255FF4FD491F901E656FF4FC491CC23CC
:10028000A9F0162F81110E940501EC2FF0E0EE0F6E
:10029000FF1FEA57FF4FA591B4918FB7F894EC91E7
:1002A000111108C0D095DE23DC938FBFDF91CF9171
:1002B0001F910895DE2BF8CF0895AF92BF92CF9291
:1002C000DF92EF92FF920F931F93CF93DF936C0116
:1002D0007B018B01040F151FEB015E01AE18BF08F7
:1002E000C017D10759F06991D601ED91FC910190A9
:1002F000F081E02DC6010995892B79F7C501DF91C1
:10030000CF911F910F91FF90EF90DF90CF90BF9012
:10031000AF900895FC01538D448D252F30E0842F3C
:1003200090E0821B930B541710F0CF96089501971D
:100330000895FC01918D828D981761F0A28DAE0F0A
:10034000BF2FB11D5D968C91928D9F5F9F73928F91
:1003500090E008958FEF9FEF0895FC01918D828DBD
:10036000981731F0828DE80FF11D858D90E008958A
:100370008FEF9FEF0895FC01918D228D892F90E0E2
:10038000805C9F4F821B91098F739927089582EE9D
:1003900091E00E94BB0121E0892B09F420E0822F2B
:1003A000089580E090E0892B29F00E94C701811117
:1003B0000C9400000895FC01A48DA80FB92FB11D65
:1003C000A35ABF4F2C91848D90E001968F7399278B
:1003D000848FA689B7892C93A089B1898C91837069
:1003E00080648C93938D848D981306C00288F38962
:1003F000E02D80818F7D80830895EF92FF920F938F
:100400001F93CF93DF93EC0181E0888F9B8D8C8DC0
:1004100098131AC0E889F989808185FF15C09FB7B4
:10042000F894EE89FF896083E889F9898081837077
:10043000806480839FBF81E090E0DF91CF911F9126
:100440000F91FF90EF900895F62E0B8D10E00F5F47
:100450001F4F0F731127E02E8C8D8E110CC00FB61D
:1004600007FCFACFE889F989808185FFF5CFCE01B5
:100470000E94DB01F1CFEB8DEC0FFD2FF11DE35A54
:10048000FF4FF0829FB7F8940B8FEA89FB89808138
:100490008062CFCFCF93DF93EC01888D8823B9F0B2
:1004A000AA89BB89E889F9898C9185FD03C080817F
:1004B00086FD0DC00FB607FCF7CF8C9185FFF2CFFC
:1004C000808185FFEDCFCE010E94DB01E9CFDF9176
:1004D000CF910895CF92DF92EF92FF920F931F93E7
:1004E000CF93DF9320919B0230E0F901EE58FF4F4C
:1004F0008491F901E255FF4FD491F901E656FF4F7F
:10050000C491CC2379F081110E940501EC2FF0E019
:10051000EE0FFF1FE859FF4FA591B491EC91ED2329
:1005200081E009F480E0817080938F02E0919E0267
:10053000F0919F0209958B019C010093900210930A
:1005400091022093920230939302809194029091B1
:100550009502A0919602B0919702B901A801481B9B
:10056000590B6A0B7B0B40938B0250938C02609368
:100570008D0270938E0290918F0280919C02981749
:1005800009F447C0C0909802D0909902F12CE12C58
:10059000C416D506E606F706E0F580919A028F5F4D
:1005A00080939A0290939C02009394021093950278
:1005B00020939602309397029923A1F140938702EA
:1005C000509388026093890270938A0282300CF102
:1005D0008091830290918402A0918502B09186025D
:1005E00040918702509188026091890270918A023D
:1005F000840F951FA61FB71F80937F0290938002E0
:10060000A0938102B093820210929A0281E08093BB
:100610009D02DF91CF911F910F91FF90EF90DF909E
:10062000CF90089540938302509384026093850293
:1006300070938602CBCFFF920F931F93CF93DF93DC
:10064000EC01F62E08811981C8010E947F08F81676
:1006500021F06F2DC8010E948708CE01DF91CF9154
:100660001F910F91FF900895EF92FF920F931F93A8
:10067000CF93DF9300D0CDB7DEB78C017B019A8397
:100680008983FB016081CE0101960E941B030F5FED
:100690001F4F1A830983F7016181CE0101960E94E1
:1006A0001B03C7010F900F90DF91CF911F910F9106
:1006B000FF90EF9008951F920F920FB60F921124A2
:1006C0002F933F938F939F93AF93BF938091DA01C2
:1006D0009091DB01A091DC01B091DD013091D90155
:1006E00023E0230F2D3758F50196A11DB11D20934E
:1006F000D9018093DA019093DB01A093DC01B093E0
:10070000DD018091DE019091DF01A091E001B091C7
:10071000E1010196A11DB11D8093DE019093DF01DF
:10072000A093E001B093E101BF91AF919F918F91B0
:100730003F912F910F900FBE0F901F90189526E8B4
:10074000230F0296A11DB11DD2CF1F920F920FB69B
:100750000F9211242F933F934F935F936F937F9347
:100760008F939F93AF93BF93EF93FF93E091020119
:10077000F09103010995FF91EF91BF91AF919F9186
:100780008F917F916F915F914F913F912F910F903A
:100790000FBE0F901F9018951F920F920FB60F92D9
:1007A00011242F933F934F935F936F937F938F9376
:1007B0009F93AF93BF93EF93FF93E0910001F0916C
:1007C00001010995FF91EF91BF91AF919F918F9199
:1007D0007F916F915F914F913F912F910F900FBE3D
:1007E0000F901F9018951F920F920FB60F92112421
:1007F0002F933F934F935F936F937F938F939F9329
:10080000AF93BF93EF93FF9382EE91E00E94DB01E1
:10081000FF91EF91BF91AF919F918F917F916F91D8
:100820005F914F913F912F910F900FBE0F901F90AE
:1008300018951F920F920FB60F9211242F938F933A
:100840009F93EF93FF93E091F201F091F301808188
:10085000E091F801F091F90182FD1BC09081809137
:10086000FB018F5F8F732091FC01821741F0E091B3
:10087000FB01F0E0EE51FE4F958F8093FB01FF915D
:10088000EF919F918F912F910F900FBE0F901F901E
:1008900018958081F4CFE2EEF1E01382128288EEA7
:1008A00093E0A0E0B0E084839583A683B78380E1E2
:1008B00091E09183808385EC90E09587848784EC38
:1008C00090E09787868780EC90E0918B808B81EC1D
:1008D00090E0938B828B82EC90E0958B848B86ECFE
:1008E00090E0978B868B118E128E138E148EEFE70D
:1008F000F2E0128E118E83E0848F8CE890E090A35A
:10090000878F8EEF838F0895CF93DF93CDB7DEB7B8
:1009100069970FB6F894DEBF0FBECDBF789484B54B
:10092000826084BD84B5816084BD85B5826085BDEB
:1009300085B5816085BD80916E00816080936E0079
:10094000109281008091810082608093810080916B
:10095000810081608093810080918000816080931C
:1009600080008091B10084608093B1008091B000DC
:1009700081608093B00080917A00846080937A00D7
:1009800080917A00826080937A0080917A00816001
:1009900080937A0080917A00806880937A00109228
:1009A000C1008DE00E94B10089E00E94B1008AE69A
:1009B00092E0909303018093020180916900837F0C
:1009C000846080936900E99AE091F201F091F3016B
:1009D00082E08083E091F201F091F3011082E091D6
:1009E000EE01F091EF011082E091F001F091F10140
:1009F00080E180831092FA01E091F601F091F70115
:100A000086E08083E091F401F091F50180818061BE
:100A10008083E091F401F091F5018081886080830A
:100A2000E091F401F091F501808180688083E0918C
:100A3000F401F091F50180818F7D8083A8ECEA2E8E
:100A4000A1E0FA2E10E000E0C8010E947F08F70143
:100A500081937F010F5F1F4F0C301105A9F7F0EB59
:100A6000EF2EF1E0FF2EC8010E947F08F70181936D
:100A70007F010F5F1F4F04321105A9F7E0E2EE2E50
:100A8000E1E0FE2EC8010E947F08F70181937F01FB
:100A90000F5F1F4F043B1105A9F76091080170918A
:100AA000090180910A0190910B01681B790B90E07C
:100AB00080E00E94A9099B01AC0160E070E08FE733
:100AC00093E40E94080960930401709305018093E8
:100AD000060190930701F1E4F0937C0080917A0085
:100AE000806480937A0080917A0086FDFCCF8091AB
:100AF0007800909179001C0180910A0190910B017E
:100B0000B1012816390608F4BC01681B790B90E086
:100B100080E00E94A90920910401309105014091D3
:100B20000601509107010E94370A0E947A098B0141
:100B30006F3F710519F010F00FEF10E00B8781E0A7
:100B4000C82ED12CF601EE0FFF1FE055FE4FE080BE
:100B5000F18020EDE21627E0F206D0F1560181E0A7
:100B6000A81AB108F501EE0FFF1FE055FE4F808077
:100B70009180B7016819790990E080E00E94A90985
:100B80002B013C0190EDE91A97E0F90AB70190E0DA
:100B900080E00E94A909A30192010E940809688BC4
:100BA000798B8A8B9B8B60ED77E06819790990E0EF
:100BB00080E00E94A909A30192010E9408096C8BA0
:100BC0007D8B8E8B9F8BBD86AC86DF86CE868CE040
:100BD0008F5F8C3008F4B4CFDD24D394ED2DF0E09A
:100BE000E853FE4FE0802B852E1588F5F12C3197C8
:100BF000A080B12CB7016A197B0990E080E00E94C7
:100C0000A9092B013C01E01AF10AB70190E080E04C
:100C10000E94A909A30192010E9408096B837C83A9
:100C20008D839E83B8016A197B0990E080E00E9461
:100C3000A909A30192010E9408096F837887898717
:100C40009A878FEF8D0D888FD98E5CE0D52ED39447
:100C50009BE09D1518F6E88DEE2EF12CF98DCF2E28
:100C6000D12CECE08C859D85E89F8001E99F100DDB
:100C70001124005E1E4FF801EE0DFF1D608170E033
:100C800090E080E00E94A9092B813C814D815E812A
:100C90000E94370A4B015C01F801EC0DFD1D6081DB
:100CA00070E090E080E00E94A9092F813885498595
:100CB0005A850E94370A9B01AC01C501B4010E940C
:100CC0009C08288939894A895B890E94370A4B0127
:100CD0005C01ECE08E859F85E89F8001E99F100D07
:100CE0001124005E1E4FF801EE0DFF1D608170E0C3
:100CF00090E080E00E94A9092B813C814D815E81BA
:100D00000E94370A2B013C010C0D1D1DF80160816A
:100D100070E090E080E00E94A9092F813885498524
:100D20005A850E94370A9B01AC01C301B2010E949F
:100D30009C082C893D894E895F890E94370AA5014C
:100D400094010E949C080E947A09162F89E00E9453
:100D5000B100111155C060E089E00E942E0110928F
:100D60009D0282EE91E00E94BB01892BE9F082EEA8
:100D700091E00E9499018C01F82E8091D801811197
:100D800088C061E08DE00E942E0181E08093D8014F
:100D90008091D701811114C1F6E4FF1281C0009344
:100DA000D70120E92093D6018091D701863609F03A
:100DB0004BC10E94D0000091D4011091D5019CE05C
:100DC000909FF0011124E05EFE4FE10FF11D608164
:100DD00082EE91E00E94FD0111118DC1EBE0E093E4
:100DE000D50101500093D4018091D60181508093A8
:100DF000D601811129C11092D7010E94D00024C1CF
:100E00001F3F11F461E0A8CFEBE7F0E0849183305D
:100E100021F138F48130B9F08230D1F017FDF2CFF2
:100E20009ACF873031F1883061F18430B9F7809101
:100E30008000806280938000812F90E090938B00EF
:100E400080938A008CCF84B5806884BD17BD87CF1E
:100E500084B5806284BD18BD82CF80918000806897
:100E600080938000812F90E0909389008093880088
:100E700076CF8091B00080688093B0001093B3006B
:100E80006ECF8091B00080628093B0001093B40068
:100E900066CF60E08DE00E942E011092D80178CFDD
:100EA00082E5F81206C00093D70198E19093D6012D
:100EB0007BCFE0E5FE1206C00093D701FCE0F09383
:100EC000D60172CF26E6F2120BC00093D70180E95B
:100ED0008093D6019BE09093D5019093D40164CF89
:100EE000E2E7FE1204C00093D701F8E1E8CF20E763
:100EF000F21206C00093D7018CE08093D60154CF44
:100F000092E4F9123DC048ECE42E41E0F42E10E0EA
:100F100000E01A830983F70161917F01CE010196F8
:100F20000E941B030F5F1F4F0C30110591F730EB30
:100F3000E32E31E0F32E0CE010E01A830983F70171
:100F400061917F01CE0101960E941B030F5F1F4F2D
:100F50000432110591F720E2E22E21E0F22E1A83ED
:100F60000983F70161917F01CE0101960E941B0365
:100F70000F5F1F4F043B110591F71092D70114CF5B
:100F8000F3E4FF1205C030920B0120920A010CCF4E
:100F90002FE4F21205C03092090120920801EDCF32
:100FA00085E4F81201CF6AE071E084EB90E00E94E2
:100FB000340368E071E086EB90E00E943403DDCFFB
:100FC000863471F48091D60181508093D601E82F48
:100FD000F0E0E05EFE4F0083811124C01092D70143
:100FE0008091D7018235F1F48091D60181508093B0
:100FF000D60180FD76C0302F222740911E015091EE
:101000001F01240F351F30931F0120931E01E82F6D
:10101000F0E0EE7FFF27E055FE4F318320838823E9
:1010200009F466C08091D701803509F0BDCE80916A
:10103000D60181508093D601E82FF0E0E853FE4FAF
:101040000083882309F499CF8091D701823711F565
:10105000F090D601FA94FA94F092D6010F2D10E098
:101060000E7F112700551E4FF801608182EE91E03E
:101070000E94FD010E94D000F801618182EE91E0A2
:101080000E94FD010E94D000F1101EC01092D701F5
:101090000E94D0008091D7018037B1F41091D60121
:1010A00011501093D6010E94D000E12FF0E0E853D8
:1010B000FE4F608182EE91E00E94FD01111104C09B
:1010C0001092D7010E94D00080E090E0892B09F4B3
:1010D00002CD0E94C701882309F4FDCC0E940000C4
:1010E000FACCC801992790931F0180931E019ACFD3
:1010F0001092D70197CF11501093D50175CEF99961
:10110000FECF92BD81BDF89A992780B50895262F0C
:10111000F999FECF1FBA92BD81BD20BD0FB6F894DC
:10112000FA9AF99A0FBE01960895EE0FFF1F0590E7
:10113000F491E02D09945058BB27AA270E94B308C8
:101140000C94FD090E94EF0938F00E94F60920F086
:1011500039F49F3F19F426F40C94EC090EF4E09551
:10116000E7FB0C94E609E92F0E940E0A58F3BA1720
:10117000620773078407950720F079F4A6F50C94AD
:10118000300A0EF4E0950B2EBA2FA02D0B01B901F9
:1011900090010C01CA01A0011124FF27591B99F0ED
:1011A000593F50F4503E68F11A16F040A22F232FF9
:1011B000342F4427585FF3CF469537952795A79549
:1011C000F0405395C9F77EF41F16BA0B620B730BF0
:1011D000840BBAF09150A1F0FF0FBB1F661F771F61
:1011E000881FC2F70EC0BA0F621F731F841F48F416
:1011F000879577956795B795F7959E3F08F0B0CF9F
:101200009395880F08F09927EE0F97958795089585
:101210000E941C090C94FD090E94F60958F00E94D6
:10122000EF0940F029F45F3F29F00C94E6095111D1
:101230000C94310A0C94EC090E940E0A68F399236D
:10124000B1F3552391F3951B550BBB27AA276217C2
:101250007307840738F09F5F5F4F220F331F441FCF
:10126000AA1FA9F335D00E2E3AF0E0E832D0915003
:101270005040E695001CCAF72BD0FE2F29D0660FF0
:10128000771F881FBB1F261737074807AB07B0E833
:1012900009F0BB0B802DBF01FF2793585F4F3AF039
:1012A0009E3F510578F00C94E6090C94310A5F3F9B
:1012B000E4F3983ED4F3869577956795B795F795BF
:1012C0009F5FC9F7880F911D9695879597F90895A7
:1012D000E1E0660F771F881FBB1F62177307840743
:1012E000BA0720F0621B730B840BBA0BEE1F88F752
:1012F000E09508950E94160A88F09F5798F0B92F3C
:101300009927B751B0F0E1F0660F771F881F991F3A
:101310001AF0BA95C9F714C0B13091F00E94300AA2
:10132000B1E008950C94300A672F782F8827B85FB2
:1013300039F0B93FCCF3869577956795B395D9F792
:101340003EF490958095709561957F4F8F4F9F4F9C
:101350000895E89409C097FB3EF4909580957095A8
:1013600061957F4F8F4F9F4F9923A9F0F92F96E9F1
:10137000BB279395F695879577956795B795F11166
:10138000F8CFFAF4BB0F11F460FF1BC06F5F7F4F03
:101390008F4F9F4F16C0882311F096E911C0772315
:1013A00021F09EE8872F762F05C0662371F096E81E
:1013B000862F70E060E02AF09A95660F771F881FED
:1013C000DAF7880F9695879597F9089597F99F67AB
:1013D00080E870E060E008959FEF80EC08950024BD
:1013E0000A941616170618060906089500240A948A
:1013F00012161306140605060895092E0394000C10
:1014000011F4882352F0BB0F40F4BF2B11F460FF9E
:1014100004C06F5F7F4F8F4F9F4F089557FD9058C7
:10142000440F551F59F05F3F71F04795880F97FBA8
:10143000991F61F09F3F79F0879508951216130662
:101440001406551FF2CF4695F1DF08C01616170691
:101450001806991FF1CF86957105610508940895C6
:10146000E894BB2766277727CB0197F908950E9458
:101470004A0A0C94FD090E94EF0938F00E94F6090F
:1014800020F0952311F00C94E6090C94EC0911243A
:101490000C94310A0E940E0A70F3959FC1F3950FC8
:1014A00050E0551F629FF001729FBB27F00DB11DE8
:1014B000639FAA27F00DB11DAA1F649F6627B00D78
:1014C000A11D661F829F2227B00DA11D621F739F61
:1014D000B00DA11D621F839FA00D611D221F749F6F
:1014E0003327A00D611D231F849F600D211D822FB6
:1014F000762F6A2F11249F5750409AF0F1F08823DD
:101500004AF0EE0FFF1FBB1F661F771F881F915009
:101510005040A9F79E3F510580F00C94E6090C94C9
:10152000310A5F3FE4F3983ED4F38695779567954B
:10153000B795F795E7959F5FC1F7FE2B880F911D33
:0C1540009695879597F90895F894FFCFD1
:10154C005C015C0134A2D43E3303CD0000000000EA
:0E155C00FD015D018A014A02BB019901AD014A
:00000001FF
